:020000040800F2
:1000000000000520810B0008B5080008BD080008A5
:10001000C5080008CD080008D50800080000000049
:10002000000000000000000000000000DD080008E3
:10003000EB08000800000000F908000807090008A4
:10004000D10B0008D10B0008D10B0008D10B000820
:10005000D10B0008D10B0008D10B0008D10B000810
:1000600013090008D10B000821090008D10B000872
:10007000D10B0008D10B0008D10B0008D10B0008F0
:10008000D10B0008D10B0008D10B0008D10B0008E0
:10009000D10B0008D10B0008D10B00082F09000874
:1000A000D10B0008D10B0008D10B0008D10B0008C0
:1000B000D10B0008D10B0008D10B0008D10B0008B0
:1000C000D10B0008D10B0008D10B0008D10B0008A0
:1000D000D10B0008D10B0008D10B0008D10B000890
:1000E000D10B0008D10B0008D10B0008D10B000880
:1000F000D10B0008D10B0008D10B0008D10B000870
:10010000D10B0008D10B0008D10B0008D10B00085F
:10011000D10B0008D10B0008D10B0008D10B00084F
:10012000D10B0008D10B0008D10B0008D10B00083F
:10013000D10B0008D10B0008D10B0008D10B00082F
:10014000D10B0008D10B0008D10B0008D10B00081F
:10015000D10B0008D10B0008D10B0008D10B00080F
:10016000D10B0008D10B0008D10B0008D10B0008FF
:10017000D10B0008D10B00080000000000000000B7
:10018000D10B0008D10B0008D10B0008D10B0008DF
:10019000D10B0008D10B000800000000D10B0008B3
:1001A000D10B0008D10B0008000000000000000087
:1001B000D10B00080000000000000000D10B000877
:1001C000D10B0008D10B0008D10B0008D10B00089F
:0801D000D10B0008D10B00085F
:1001D80010B5054C237833B9044B13B10448AFF379
:1001E80000800123237010BD2800002000000000BB
:1001F8005034000808B5034B1BB103490348AFF35B
:10020800008008BD000000002C00002050340008C9
:1002180053B94AB9002908BF00281CBF4FF0FF3165
:100228004FF0FF3000F06AB9ADF1080C6DE904CE6B
:1002380000F006F8DDF804E0DDE9022304B07047B9
:100248002DE9F047089D0C46002B4ED194468C456D
:100258008646B2FA82F262D94AB1C2F120039140CD
:1002680020FA03F30CFA02FC194300FA02FE4FEAE3
:100278001C471FFA8CF6B1FBF7F44FEA1E4307FB45
:10028800141143EA014304FB06F199420AD91CEB15
:10029800030304F1FF3080F01281994240F20F818C
:1002A800023C6344591A1FFA8EF3B1FBF7F007FBBF
:1002B800101143EA014300FB06F69E420AD91CEBE3
:1002C800030300F1FF3180F0FC809E4240F2F98088
:1002D800634402389B1B40EA044000211DB1D3400F
:1002E8000022C5E90032BDE8F0878B4205D90DB17F
:1002F800C5E9000100210846F5E7B3FA83F10029B2
:1003080046D1A34202D39042C0F0F080861A64EB33
:1003180003030120002DE6D0C5E90063E3E7002AC6
:1003280040F09080A1EB0C044FEA1C481FFA8CF7B0
:100338000121B4FBF8F64FEA1E4308FB164443EAD2
:10034800044307FB06F0984208D91CEB030306F1A7
:10035800FF3402D2984200F2CD8026461C1A1FFABA
:100368008EF3B4FBF8F008FB104443EA044300FBA7
:1003780007F79F4208D91CEB030300F1FF3402D2B0
:100388009F4200F2B0802046DB1B40EA0640A5E70A
:10039800C1F120068B4022FA06F71F4320FA06FC1B
:1003A80004FA01F343EA0C03F44000FA01F8380CAC
:1003B8004FEA1349B4FBF0FE1FFA87FC00FB1E440A
:1003C80049EA04440EFB0CF9A14502FA01F20AD9E4
:1003D8003C190EF1FF3A80F08480A14540F28180FB
:1003E800AEF1020E3C44A4EB09041FFA83F9B4FBF6
:1003F800F0F300FB134449EA044403FB0CFCA44556
:1004080007D93C1903F1FF3067D2A44565D9023BEF
:100418003C4443EA0E40A0FB0293A4EB0C049C422C
:10042800CE469C4651D34ED055B1B8EB0E0364EB83
:100438000C0404FA06F6CB401E43CC40C5E9006420
:10044800002150E7C2F1200320FA03F10CFA02FC64
:1004580024FA03F394400C434FEA1C4800FA02FEC6
:100468001FFA8CF7B3FBF8F008FB1031230C43EAB2
:10047800014300FB07F1994208D91CEB030300F183
:10048800FF362CD299422AD9023863445B1AA4B2A7
:10049800B3FBF8F108FB113344EA034401FB07F30B
:1004A800A34208D91CEB040401F1FF3613D2A3427E
:1004B80011D902396444E41A41EA004139E7044693
:1004C800F0E6084606E7C845AED2B9EB020E63EB84
:1004D800070C0138A8E73146EDE7034699E73046AF
:1004E800D4E7D6467FE7634402384DE706462346FD
:1004F80008460FE7023E634430E700BF704700BF7D
:1005080080B58EB000AF07F1240300221A605A604C
:100518009A60DA601A6100233B627B4B1B6B7A4A54
:1005280043F010031363784B1B6B03F010033B621B
:100538003B6A0023FB61744B1B6B734A43F0040353
:100548001363714B1B6B03F00403FB61FB6900230E
:10055800BB616D4B1B6B6C4A43F0200313636A4B02
:100568001B6B03F02003BB61BB6900237B61664BF7
:100578001B6B654A43F080031363634B1B6B03F0EB
:1005880080037B617B6900233B615F4B1B6B5E4A89
:1005980043F0020313635C4B1B6B03F002033B61E4
:1005A8003B690023FB60584B1B6B574A43F0080319
:1005B8001363554B1B6B03F00803FB60FB680023B8
:1005C800BB60514B1B6B504A43F0400313634E4BC7
:1005D8001B6B03F04003BB60BB6800237B604A4B86
:1005E8001B6B494A43F001031363474B1B6B03F032
:1005F80001037B607B6801224821444801F074F8BC
:1006080001224FF4C071424801F06EF8002244F212
:100618008101404801F068F8002240213E4801F07D
:1006280063F834237B620023BB620123FB6207F17A
:1006380024031946354800F0ABFE48237B620123AA
:10064800BB620023FB6200233B6307F124031946C6
:100658002E4800F09DFE4FF400537B624FF4881340
:10066800BB620023FB6207F1240319462B4800F004
:100678008FFE4FF4C0737B620123BB620023FB62D1
:1006880000233B6307F124031946214800F080FE4C
:1006980044F281037B620123BB620023FB620023D7
:1006A8003B6307F1240319461A4800F071FE402302
:1006B8007B620123BB620023FB6200233B6307F1DB
:1006C80024031946144800F063FE80237B6200234C
:1006D800BB620023FB6207F1240319460E4800F0B1
:1006E80057FE20237B620123BB620023FB620023A9
:1006F8003B6307F124031946094800F049FE00BF8F
:100708003837BD4680BD00BF0038024000100240A7
:100718000014024000040240001802400008024091
:100728000000024080B582B000AF00F089FC00F004
:1007380023F8FFF7E5FE00F00FF900F07FF900F06D
:1007480039FB32210A4800F0E5FA094800F0F6FAC8
:100758000346002BF9D000F06BFC0346FB71FB79D4
:10076800002BF2D02021034800F0D7FFEDE700BFAF
:10077800440000200000024080B594B000AF07F1AB
:100788001C0334220021184602F031FE07F1080349
:1007980000221A605A609A60DA601A6100237B604E
:1007A800294B1B6C284A43F080531364264B1B6C5F
:1007B80003F080537B607B6800233B60234B1B68FE
:1007C800224A43F440431360204B1B6803F4404320
:1007D8003B603B680123FB614FF4A0233B6202238B
:1007E8007B634FF48003BB630823FB634FF4C07340
:1007F8003B6404237B640823BB640223FB6407F186
:100808001C03184601F0A2FD0346002B01D000F09E
:100818001FF80F23BB600223FB6000233B614FF4EA
:1008280080537B610023BB6107F10803032118464D
:1008380001F0E0F80346002B01D000F009F800BFF2
:100848005037BD4680BD00BF0038024000700040F0
:1008580080B400AF72B600BF00BFFDE780B483B0BC
:1008680000AF00237B60104B5B6C0F4A43F480435E
:1008780053640D4B5B6C03F480437B607B680023FF
:100888003B60094B1B6C084A43F080531364064BCA
:100898001B6C03F080533B603B6800BF0C37BD46C0
:1008A8005DF8047B704700BF0038024080B400AF99
:1008B80000BFFDE780B400AF00BFFDE780B400AF24
:1008C80000BFFDE780B400AF00BFFDE780B400AF14
:1008D80000BFFDE780B400AF00BFBD465DF8047BF4
:1008E800704780B400AF00BFBD465DF8047B704719
:1008F80080B400AF00BFBD465DF8047B704780B58B
:1009080000AF00F0EFFB00BF80BD80B500AF042052
:1009180000F01EFF00BF80BD80B500AF102000F0C2
:1009280017FF00BF80BD80B500AF202000F010FF8A
:1009380000BF80BD80B400AF064BD3F88830054AAD
:1009480043F47003C2F8883000BFBD465DF8047BED
:10095800704700BF00ED00E080B500AF114B124AB0
:100968001A60104B4FF4E1325A600E4B00229A6025
:100978000C4B0022DA600B4B00221A61094B0C2247
:100988005A61084B00229A61064B0022DA61054839
:1009980001F060FF0346002B01D0FFF759FF00BFAD
:1009A80080BD00BF500000200048004080B58AB0DC
:1009B80000AF786007F1140300221A605A609A6049
:1009C800DA601A617B681B68194A93422CD10023AC
:1009D8003B61184B1B6C174A43F480231364154B77
:1009E8001B6C03F480233B613B690023FB60114BC4
:1009F8001B6B104A43F0080313630E4B1B6B03F089
:100A08000803FB60FB684FF440737B610223BB6102
:100A18000023FB6103233B6207237B6207F1140376
:100A28001946054800F0B4FC00BF2837BD4680BD14
:100A38000048004000380240000C024080B500AF7A
:100A4800154B4FF0A0421A60134B06221A71124B35
:100A58000222DA71104B00229A710F4B02225A724D
:100A68000D4B01229A720C4B0022DA720A4B0022BB
:100A78001A73094B01225A73074B01229A73064BCA
:100A88000022DA73044800F07BFE0346002B01D0F5
:100A9800FFF7DEFE00BF80BD9800002080B5A0B043
:100AA80000AF786007F16C0300221A605A609A6000
:100AB800DA601A6107F1140358220021184602F07F
:100AC80096FC7B681B68B3F1A04F4DD120237B6156
:100AD80000237B6407F11403184601F0ABF90346C1
:100AE800002B01D0FFF7B4FE00233B61204B1B6BAA
:100AF8001F4A43F0010313631D4B1B6B03F00103F3
:100B08003B613B694FF4E853FB6602233B670023D4
:100B18007B670323BB670A23FB6707F16C0319464E
:100B2800144800F035FC4FF40073FB6600233B6764
:100B380000237B6707F16C0319460E4800F028FC78
:100B48000B4B5B6B0A4A43F0800353630023FB6043
:100B5800074B5B6C064A43F480435364044B5B6C5D
:100B680003F48043FB60FB6800BF8037BD4680BD4F
:100B78000038024000000240DFF834D0FFF7DAFE08
:100B88000C480D490D4A002302E0D458C4500433E0
:100B9800C4188C42F9D30A4A0A4C002301E01360B6
:100BA8000432A242FBD302F02BFCFFF7BBFD7047D7
:100BB80000000520000000202800002090340008D4
:100BC80028000020B4050020FEE7000080B483B0B0
:100BD80000AF0023FB71094B00221A70084B1B78E9
:100BE800002B04D00123FB71054B00221A70FB79FE
:100BF80018460C37BD465DF8047B70477E0500201B
:100C08007D05002080B500AF074B00221A7028210F
:100C1800064800F07FF844F2810000F0B9F8044B70
:100C280001221A7000BF80BD7C05002080050020CD
:100C38007F05002080B582B000AF0346FB71314BC1
:100C48001B78032B4FD801A252F823F0650C00083B
:100C5800790C0008A70C0008C10C0008FB79002BD0
:100C680044D0284B01221A70274800F067F83DE06D
:100C7800254800F063F80346002B39D0FB79002B98
:100C880009D0224B01221A70214B01221A701D4BE8
:100C980002221A702CE01B4B00221A7028E0FB7904
:100CA80083F00103DBB2002B24D0164B03221A7009
:100CB800154800F043F81DE0134800F03FF80346DC
:100CC800002B19D0FB7983F00103DBB2002B06D08F
:100CD8000E4B00221A700B4B00221A700CE0094BC5
:100CE80002221A7008E0FFF7B3FD06E000BF04E037
:100CF80000BF02E000BF00E000BF00BF0837BD46EC
:100D080080BD00BF7C050020800500207D050020F7
:100D18007E05002080B582B000AF7860396000F0B1
:100D2800F5F902467B681A607B683A685A607B6806
:100D380000221A7200BF0837BD4680BD80B582B058
:100D480000AF78607B681B7A83F00103DBB2002B6D
:100D580009D000F0DBF902467B681A607B68012243
:100D68001A7200230FE000F0D1F902467B681B6875
:100D7800D21A7B685B689A4204D37B6800221A7295
:100D8800012300E0002318460837BD4680BD000057
:100D980080B582B000AF0346FB80FB88002219466D
:100DA800034800F0A1FC00BF0837BD4680BD00BF66
:100DB8000004024080B588B000AF07F10C030022A0
:100DC8001A605A609A60DA601A610023BB602F4B80
:100DD8001B6B2E4A43F0100313632C4B1B6B03F061
:100DE8001003BB60BB6800237B60284B1B6B274A42
:100DF80043F020031363254B1B6B03F020037B6038
:100E08007B683423FB604FF404133B6101237B614F
:100E180007F10C0319461E4800F0BAFA4FF4E473C0
:100E2800FB6001233B6100237B610023BB6107F169
:100E38000C031946174800F0ABFA01224FF4E4718D
:100E4800144800F051FC00220021082000F069FA43
:100E5800082000F082FA002200210A2000F061FA3E
:100E68000A2000F07AFA00220021172000F059FA2F
:100E7800172000F072FAFFF7C5FE28210648FFF791
:100E880049FF00BF2037BD4680BD00BF0038024083
:100E98000010024000140240A405002080B483B072
:100EA80000AF0346FB71144B1B681449FA79CA5406
:100EB800114B1B6801335A4203F00F0302F00F0273
:100EC80058BF53420C4A13600B4B1A680C4B1B68F3
:100ED8009A420BD10A4B1B6801335A4203F00F03A5
:100EE80002F00F0258BF5342054A136000BF0C3787
:100EF800BD465DF8047B70479C0500208C050020EA
:100F0800A005002080B483B000AF104B1A68104BC6
:100F18001B689A4201D1002311E00D4B1B680D4A52
:100F2800D35CFB710A4B1B6801335A4203F00F0371
:100F380002F00F0258BF5342054A1360FB79184666
:100F48000C37BD465DF8047B704700BF9C05002048
:100F5800A00500208C05002080B582B000AF0023DA
:100F68007B603FE0234A7B6832F813300022194641
:100F7800214800F0B9FB00233B6024E01F4A3B688E
:100F880032F8133019461E4800F096FB0346002B32
:100F980014BF01230023DBB21846FFF74BFEFFF70F
:100FA80015FE0346002B0BD016497A6813465B00E2
:100FB8001344CA183B6813441B781846FFF76EFFA2
:100FC8003B6801333B603B68022BD7DD094A7B68ED
:100FD80032F8133001221946074800F085FB7B6878
:100FE80001337B607B68032BBCDD00BF00BF083783
:100FF800BD4680BD100000200014024018000020EB
:10100800001002400400002080B582B000AF034603
:10101800FB800648FFF792FE0346002B01D0FFF73E
:101028009BFF00BF0837BD4680BD00BFA405002058
:1010380080B500AFFFF766FF0346184680BD000085
:1010480080B500AF0E4B1B680D4A43F40073136064
:101058000B4B1B680A4A43F480631360084B1B68F8
:10106800074A43F480731360032000F04FF900200F
:1010780000F008F8FFF7F2FB0023184680BD00BF18
:10108800003C024080B582B000AF7860124B1A680D
:10109800124B1B7819464FF47A73B3FBF1F3B2FB8A
:1010A800F3F3184600F067F90346002B01D001233B
:1010B8000EE07B680F2B0AD8002279684FF0FF30CA
:1010C80000F02FF9064A7B681360002300E0012333
:1010D80018460837BD4680BD0000002024000020C7
:1010E8002000002080B400AF064B1B781A46064B40
:1010F8001B681344044A136000BFBD465DF8047BB7
:10110800704700BF24000020B005002080B400AF65
:10111800034B1B681846BD465DF8047B704700BF4B
:10112800B005002080B584B000AF7860FFF7EEFF0F
:10113800B8607B68FB60FB68B3F1FF3F05D00A4BE2
:101148001B781A46FB681344FB6000BFFFF7DEFFFD
:101158000246BB68D31AFA689A42F7D800BF00BFA4
:101168001037BD4680BD00BF2400002080B485B084
:1011780000AF78607B6803F00703FB600C4BDB680B
:10118800BB60BA684FF6FF031340BB60FB681A02E6
:10119800BB68134343F0BF6343F40033BB60044AA6
:1011A800BB68D36000BF1437BD465DF8047B704749
:1011B80000ED00E080B400AF044BDB681B0A03F0CD
:1011C80007031846BD465DF8047B704700ED00E054
:1011D80080B483B000AF0346FB7197F90730002B4A
:1011E8000BDBFB7903F01F02074997F907305B090E
:1011F800012000FA02F241F8232000BF0C37BD4657
:101208005DF8047B704700BF00E100E080B483B064
:1012180000AF03463960FB7197F90730002B0ADBF2
:101228003B68DAB20C4997F907301201D2B20B4485
:1012380083F800230AE03B68DAB20849FB7903F037
:101248000F03043B1201D2B20B441A7600BF0C37CD
:10125800BD465DF8047B704700E100E000ED00E06A
:1012680080B489B000AFF860B9607A60FB6803F0B9
:101278000703FB61FB69C3F10703042B28BF0423A1
:10128800BB61FB690433062B02D9FB69033B00E011
:1012980000237B614FF0FF32BB6902FA03F3DA43A4
:1012A800BB681A407B699A404FF0FF317B6901FAAD
:1012B80003F3D9437B680B40134318462437BD46D4
:1012C8005DF8047B7047000080B582B000AF78609D
:1012D8007B68013BB3F1807F01D301230FE00A4A09
:1012E8007B68013B53600F214FF0FF30FFF78EFF03
:1012F800054B00229A60044B07221A600023184607
:101308000837BD4680BD00BF10E000E080B582B060
:1013180000AF78607868FFF729FF00BF0837BD463F
:1013280080BD80B586B000AF0346B9607A60FB73B4
:1013380000237B61FFF73EFF78617A68B9687869B6
:10134800FFF78EFF024697F90F3011461846FFF750
:101358005DFF00BF1837BD4680BD80B582B000AFC5
:101368000346FB7197F907301846FFF731FF00BFB6
:101378000837BD4680BD80B582B000AF7860786818
:10138800FFF7A2FF034618460837BD4680BD000098
:1013980080B489B000AF7860396000237B61002396
:1013A8003B610023BB610023FB6165E10122FB690E
:1013B80002FA03F37B613B681B687A6913403B615F
:1013C8003A697B699A4240F054813B685B6803F054
:1013D8000303012B05D03B685B6803F00303022B72
:1013E80030D17B689B68BB61FB695B00032202FA12
:1013F80003F3DB43BA691340BB613B68DA68FB69F6
:101408005B0002FA03F3BA691343BB617B68BA69EC
:101418009A607B685B68BB610122FB6902FA03F38F
:10142800DB43BA691340BB613B685B681B0903F087
:101438000102FB6902FA03F3BA691343BB617B68D3
:10144800BA695A603B685B6803F00303032B17D043
:101458007B68DB68BB61FB695B00032202FA03F36C
:10146800DB43BA691340BB613B689A68FB695B0060
:1014780002FA03F3BA691343BB617B68BA69DA609D
:101488003B685B6803F00303022B23D1FB69DA088E
:101498007B68083253F82230BB61FB6903F007030D
:1014A8009B000F2202FA03F3DB43BA691340BB61C6
:1014B8003B681A69FB6903F007039B0002FA03F310
:1014C800BA691343BB61FB69DA087B680832B969FA
:1014D80043F822107B681B68BB61FB695B00032231
:1014E80002FA03F3DB43BA691340BB613B685B68EC
:1014F80003F00302FB695B0002FA03F3BA691343C2
:10150800BB617B68BA691A603B685B6803F4403367
:10151800002B00F0AE800023FB605D4B5B6C5C4AE7
:1015280043F4804353645A4B5B6C03F48043FB6081
:10153800FB68584AFB699B08023352F82330BB61A9
:10154800FB6903F003039B000F2202FA03F3DB435A
:10155800BA691340BB617B684F4A934225D07B68C8
:101568004E4A93421FD07B684D4A934219D07B68FC
:101578004C4A934213D07B684B4A93420DD07B6808
:101588004A4A934207D07B68494A934201D10623CD
:101598000CE007230AE0052308E0042306E0032300
:1015A80004E0022302E0012300E00023FA6902F0CC
:1015B800030292009340BA691343BB613549FB6942
:1015C8009B080233BA6941F823203A4B9B68BB61F8
:1015D8003B69DB43BA691340BB613B685B6803F452
:1015E8008013002B03D0BA693B691343BB61314AAE
:1015F800BB6993602F4BDB68BB613B69DB43BA690E
:101608001340BB613B685B6803F40013002B03D0F5
:10161800BA693B691343BB61264ABB69D360254B52
:101628005B68BB613B69DB43BA691340BB613B68DC
:101638005B6803F40033002B03D0BA693B6913439A
:10164800BB611C4ABB6953601A4B1B68BB613B6991
:10165800DB43BA691340BB613B685B6803F48033C2
:10166800002B03D0BA693B691343BB61114ABB69BC
:101678001360FB690133FB61FB690F2B7FF696AEA4
:1016880000BF00BF2437BD465DF8047B704700BF2C
:1016980000380240003801400000024000040240C7
:1016A80000080240000C02400010024000140240F2
:1016B80000180240003C014080B485B000AF78605B
:1016C8000B467B807B681A697B881340002B02D00D
:1016D8000123FB7301E00023FB73FB7B18461437DF
:1016E800BD465DF8047B704780B483B000AF786076
:1016F8000B467B8013467B707B78002B03D07A885F
:101708007B689A6103E07B881A047B689A6100BF52
:101718000C37BD465DF8047B704780B485B000AFD8
:1017280078600B467B807B685B69FB607A88FB6826
:1017380013401A04FB68D9437B880B401A437B6823
:101748009A6100BF1437BD465DF8047B70470000FE
:1017580080B582B000AF0346FB80084B5A69FB880E
:101768001340002B06D0054AFB885361FB881846B6
:10177800FFF74AFC00BF0837BD4680BD003C01406A
:1017880080B586B002AF78607B68002B01D1012359
:1017980008E17B681B68BB607B6893F89534DBB213
:1017A800002B06D17B68002283F894247868FFF721
:1017B80075F97B68032283F89524BB68B3F1A04FC1
:1017C80002D17B6800229A717B681B68184601F079
:1017D80079FB7B6818687B681A7C8DF800200433D5
:1017E8000ECB01F00BFB0346002B05D07B680222D1
:1017F80083F895240123D5E07B681B6800211846EF
:1018080001F071FB0346002B05D07B68022283F8A8
:1018180095240123C6E00023FB734AE0FA7B79682C
:101828001346DB0013449B000B44153301221A7046
:10183800FA7B79681346DB0013449B000B4414338E
:10184800FA7B1A70FA7BFB7B98B279681346DB0047
:1018580013449B000B442E3302461A80FA7B7968A6
:101868001346DB0013449B000B44183300221A7004
:10187800FA7B79681346DB0013449B000B441C3346
:1018880000221A60FA7B79681346DB0013449B0038
:101898000B44203300221A60FA7B79681346DB0078
:1018A80013449B000B44243300221A60FB7B013352
:1018B800FB737B681B79FA7B9A42AFD30023FB73D7
:1018C80044E0FA7B79681346DB0013449B000B4421
:1018D80003F2552300221A70FA7B79681346DB005D
:1018E80013449B000B4403F51573FA7B1A70FA7BBB
:1018F80079681346DB0013449B000B4403F5167309
:1019080000221A70FA7B79681346DB0013449B00A7
:101918000B4403F5177300221A60FA7B79681346A3
:10192800DB0013449B000B4403F5187300221A6074
:10193800FA7B79681346DB0013449B000B4403F5DC
:10194800197300221A60FB7B0133FB737B681B79D8
:10195800FA7B9A42B5D37B6818687B681A7C8DF845
:10196800002004330ECB01F00BFB0346002B05D0FF
:101978007B68022283F89524012313E07B68002208
:101988005A747B68012283F895247B681B7B012BA2
:1019980002D1786800F00AF87B681B68184601F0E5
:1019A800C6FC002318461037BD4680BD80B485B0FC
:1019B80000AF78607B681B68FB607B680122C3F816
:1019C800D8247B68002283F8CC24FB689B6943F009
:1019D8000062FB689A61FB685B6D43F0805343F0DB
:1019E8000303FA685365002318461437BD465DF8AB
:1019F800047B704780B584B000AF786039607B683D
:101A0800002B01D10123CCE0684B1B6803F00703CE
:101A18003A689A420CD9654B3A68D2B21A70634B4D
:101A28001B6803F007033A689A4201D00123B8E023
:101A38007B681B6803F00203002B20D07B681B68BF
:101A480003F00403002B05D0594B9B68584A43F414
:101A5800E05393607B681B6803F00803002B05D0F4
:101A6800534B9B68524A43F460439360504B9B68C6
:101A780023F0F0027B689B684D4913438B607B68B9
:101A88001B6803F00103002B44D07B685B68012BC3
:101A980007D1474B1B6803F40033002B19D10123EE
:101AA8007FE07B685B68022B03D07B685B68032B55
:101AB80007D13F4B1B6803F00073002B09D10123AA
:101AC8006FE03B4B1B6803F00203002B01D101239D
:101AD80067E0374B9B6823F003027B685B683449F7
:101AE80013438B60FFF712FBF8600AE0FFF70EFB69
:101AF8000246FB68D31A41F28832934201D9032384
:101B08004FE02B4B9B6803F00C027B685B689B00E3
:101B18009A42EBD1254B1B6803F007033A689A42B7
:101B28000CD2224B3A68D2B21A70204B1B6803F0D1
:101B380007033A689A4201D0012332E07B681B68A8
:101B480003F00403002B08D0194B9B6823F4E052E0
:101B58007B68DB68164913438B607B681B6803F05E
:101B68000803002B09D0124B9B6823F460427B6862
:101B78001B69DB000E4913438B6000F021F8024615
:101B88000B4B9B681B0903F00F030A49CB5C22FA35
:101B980003F3094A1360094B1B681846FFF772FAEA
:101BA800002318461037BD4680BD00BF003C0240E8
:101BB800003802406834000800000020200000209F
:101BC8002DE9B04F94B000AF00237B640023FB6481
:101BD80000233B640023BB64794B9B6803F00C0330
:101BE800082B0DD0082B00F2E180002B02D0042B2B
:101BF80003D0DBE0734BBB64DBE0734BBB64D8E022
:101C08006F4B5B6803F03F037B646D4B5B6803F4C9
:101C18008003002B63D06A4B5B689B090022BB637F
:101C2800FA63BB6BC3F308033B6300237B63D7E909
:101C38000C4522462B464FF000004FF00001590199
:101C480041EAD261500102460B462146511A3961D8
:101C5800294663EB01037B614FF000024FF000035C
:101C6800D7E904AB59468B01514643EA9163514683
:101C78008A015146B2EB0108594663EB01094FF05E
:101C880000024FF000034FEAC90343EA58734FEAD2
:101C9800C80290469946234618EB0303BB602B46BF
:101CA80049EB0303FB604FF000024FF00003D7E954
:101CB800024529464B02214643EAD15321464A02AE
:101CC800104619467B6C0022BB62FA62D7E90A23E8
:101CD800FEF79EFA02460B461346FB6458E0384B63
:101CE8005B689B09002218461146C0F308033B6253
:101CF80000237B62D7E9088942464B464FF0000033
:101D08004FF00001590141EAD261500102460B46E9
:101D18004146B2EB010A494663EB010B4FF0000262
:101D28004FF000034FEA8B1343EA9A634FEA8A1293
:101D3800B2EB0A0463EB0B054FF000024FF000030F
:101D4800EB0043EA5473E20014461D464346E31889
:101D58003B604B4645EB03037B604FF000024FF0BE
:101D68000003D7E9004529468B02214643EA9153EF
:101D780021468A02104619467B6C0022BB61FA6133
:101D8800D7E90623FEF744FA02460B461346FB64DE
:101D98000B4B5B681B0C03F0030301335B003B64D4
:101DA800FA6C3B6CB2FBF3F3BB6402E0054BBB641B
:101DB80000BFBB6C18465037BD46BDE8B08F00BFAA
:101DC800003802400024F40000127A0080B400AF0A
:101DD800034B1B681846BD465DF8047B704700BF7F
:101DE8000000002080B500AFFFF7F0FF0246054B6A
:101DF8009B689B0A03F007030349CB5C22FA03F3B1
:101E0800184680BD003802407834000880B500AF1D
:101E1800FFF7DCFF0246054B9B685B0B03F00703EB
:101E28000349CB5C22FA03F3184680BD0038024010
:101E38007834000880B588B000AF78600023BB61B3
:101E480000237B6100233B610023FB617B681B68E7
:101E580003F00103002B10D07A4BD3F88C3023F019
:101E6800C0627B68DB6977491343C1F88C307B68B3
:101E7800DB69002B01D10123FB617B681B6803F040
:101E88000203002B10D06F4BD3F88C3023F0C052D4
:101E98007B681B6A6B491343C1F88C307B681B6AEB
:101EA800002B01D10123FB617B681B6803F40053FD
:101EB800002B22D0634BD3F88C3023F440127B687C
:101EC8009B6C60491343C1F88C307B689B6C002B7A
:101ED80001D10123FB617B689B6CB3F5001F0CD11A
:101EE800584BD3F88C3023F4F8527B685B69013B7C
:101EF8001B0254491343C1F88C307B681B6803F4F8
:101F08008043002B22D04F4BD3F88C3023F440026F
:101F18007B68DB6C4B491343C1F88C307B68DB6C06
:101F2800002B01D10123FB617B68DB6CB3F5000F4B
:101F38000CD1444BD3F88C3023F4F8527B685B699E
:101F4800013B1B023F491343C1F88C307B681B6877
:101F580003F00803002B00F08A800023FB60394B54
:101F68001B6C384A43F080531364364B1B6C03F0E8
:101F78008053FB60FB68344B1B68334A43F480731F
:101F88001360FFF7C3F8B86108E0FFF7BFF802462F
:101F9800BB69D31A022B01D90323D1E12A4B1B6851
:101FA80003F48073002BF0D0264B1B6F03F44073AF
:101FB8007B617B69002B2FD07B685B6A03F44073DD
:101FC8007A699A4228D01F4B1B6F23F440737B61B8
:101FD8001E4B01221A601D4B00221A60194A7B69A8
:101FE8001367184B1B6F03F00103012B14D1FFF784
:101FF8008DF8B8610AE0FFF789F80246BB69D31A81
:1020080041F28832934201D9032399E10D4B1B6FAA
:1020180003F00203002BEED07B685B6A03F4407385
:10202800B3F5407F14D1074B9B6823F4F8127B6803
:102038005B6A23F0704323F44073024913438B60B7
:102048000CE000BF0038024000700040400E4742DC
:10205800894B9B68884A23F4F8139360864B1A6F60
:102068007B685B6AC3F30B03834913430B677B6885
:102078001B6803F00403002B04D07B6893F85420FA
:102088007E4B1A607B681B6803F01003002B0AD094
:10209800794BD3F8943023F440027B68DB6A7649A5
:1020A8001343C1F894307B681B6803F02003002BAE
:1020B80011D0714BD3F8943023F000627B681B6B0E
:1020C8006D491343C1F894307B681B6BB3F1006F03
:1020D80001D10123FB617B681B6803F04003002BDF
:1020E8000AD0654BD3F8943023F080527B689B6A02
:1020F80061491343C1F89430FB69012B04D07B6814
:102108001B68802B40F0C6805D4B00221A60FEF7EA
:10211800FDFFB86108E0FEF7F9FF0246BB69D31A74
:10212800022B01D903230BE1534B1B6803F0006317
:10213800002BF0D1534A7B681B6D13607B681B68CA
:1021480003F00103002B03D07B68DB69002B23D04D
:102158007B681B6803F00203002B03D07B681B6AB3
:10216800002B19D07B681B6803F02003002B04D0D8
:102178007B681B6BB3F1006F0ED07B681B6803F0A4
:102188004003002B19D07B689B6A002B15D17B6814
:102198001B6BB3F1006F10D17B685A687B689B6832
:1021A8009B011A437B68DB681B061A437B681B6923
:1021B8001B0731491343C1F884307B681B6803F45B
:1021C8000053002B03D07B689B6C002B09D07B68E5
:1021D8001B6803F48043002B26D07B68DB6C002B44
:1021E80022D1254BD3F884301B0E03F00F033B613B
:1021F8007B685A687B689B689B011A433B691B068E
:102208001A437B681B691B071B491343C1F88430B9
:10221800194BD3F88C3023F01F027B689B69013B74
:1022280015491343C1F88C307B681B6803F08003A1
:10223800002B10D07B685A687B689B689B011A4307
:102248007B68DB681B061A437B681B691B070A4906
:102258001343C1F884300A4B01221A60FEF756FF77
:10226800B86111E0FEF752FF0246BB69D31A022B90
:102278000AD9032364E000BF00380240E011474256
:1022880068004742D81047422F4B1B6803F0006391
:10229800002BE7D07B681B6803F48073002B0AD0FF
:1022A800294BD3F88C3023F000427B685B6B2649BE
:1022B8001343C1F88C307B681B6803F40073002B50
:1022C8000AD0214BD3F88C3023F400427B689B6BF7
:1022D8001D491343C1F88C307B681B6803F4806385
:1022E800002B0AD0184BD3F88C3023F000427B68BF
:1022F800DB6B15491343C1F88C307B681B6803F40A
:102308000063002B0AD0104BD3F88C3023F48042A2
:102318007B681B6C0C491343C1F88C307B681B68C5
:1023280003F48053002B0AD0074BD3F8943023F0E2
:1023380040427B685B6C04491343C1F89430002326
:1023480018462037BD4680BD0038024080B586B0AB
:1023580000AF78607B68002B01D1012373E27B68B2
:102368001B6803F00103002B75D0884B9B6803F0B2
:102378000C03042B0CD0854B9B6803F00C03082B33
:1023880012D1824B5B6803F48003B3F5800F0BD145
:102398007E4B1B6803F40033002B5BD07B685B68C3
:1023A800002B57D101234EE27B685B68B3F5803F71
:1023B80006D1764B1B68754A43F4803313601DE0E1
:1023C8007B685B68B3F5A02F0CD1704B1B686F4A14
:1023D80043F4802313606D4B1B686C4A43F48033CD
:1023E80013600BE0694B1B68684A23F48033136061
:1023F800664B1B68654A23F4802313607B685B681F
:10240800002B13D0FEF782FE386108E0FEF77EFE4F
:1024180002463B69D31A642B01D9032313E25B4BB1
:102428001B6803F40033002BF0D014E0FEF76EFEB7
:10243800386108E0FEF76AFE02463B69D31A642B4E
:1024480001D90323FFE1514B1B6803F40033002B30
:10245800F0D100E000BF7B681B6803F00203002B8B
:1024680063D04A4B9B6803F00C03002B0BD0474BFF
:102478009B6803F00C03082B1CD1444B5B6803F4E6
:102488008003002B16D1414B1B6803F00203002B7D
:1024980005D07B68DB68012B01D00123D3E13B4BDE
:1024A8001B6823F0F8027B681B69DB00374913437C
:1024B8000B603AE07B68DB68002B20D0344B0122AC
:1024C8001A60FEF723FE386108E0FEF71FFE024699
:1024D8003B69D31A022B01D90323B4E12B4B1B68A8
:1024E80003F00203002BF0D0284B1B6823F0F802FE
:1024F8007B681B69DB00254913430B6015E0244BFF
:1025080000221A60FEF702FE386108E0FEF7FEFDC1
:1025180002463B69D31A022B01D9032393E11B4BD3
:102528001B6803F00203002BF0D17B681B6803F0E3
:102538000803002B36D07B685B69002B16D0154B3F
:1025480001221A60FEF7E2FD386108E0FEF7DEFDC1
:1025580002463B69D31A022B01D9032373E10B4BC3
:102568005B6F03F00203002BF0D01BE0094B002245
:102578001A60FEF7CBFD38610EE0FEF7C7FD024694
:102588003B69D31A022B07D903235CE100380240C8
:1025980000004742800E47428A4B5B6F03F00203FC
:1025A800002BEAD17B681B6803F00403002B00F0C2
:1025B80097800023FB75834B1B6C03F08053002B23
:1025C8000FD10023BB607F4B1B6C7E4A43F08053C6
:1025D80013647C4B1B6C03F08053BB60BB68012306
:1025E800FB75794B1B6803F48073002B18D1764B6D
:1025F8001B68754A43F480731360FEF787FD3861E2
:1026080008E0FEF783FD02463B69D31A022B01D985
:10261800032318E16C4B1B6803F48073002BF0D084
:102628007B689B68012B06D1664B1B6F654A43F09C
:10263800010313671CE07B689B68052B0CD1614B79
:102648001B6F604A43F0040313675E4B1B6F5D4AC0
:1026580043F0010313670BE05A4B1B6F594A23F0F1
:1026680001031367574B1B6F564A23F00403136784
:102678007B689B68002B15D0FEF748FD38610AE09F
:10268800FEF744FD02463B69D31A41F28832934271
:1026980001D90323D7E04B4B1B6F03F00203002B38
:1026A800EED014E0FEF732FD38610AE0FEF72EFDA9
:1026B80002463B69D31A41F28832934201D9032377
:1026C800C1E0404B1B6F03F00203002BEED1FB7DF2
:1026D800012B05D13B4B1B6C3A4A23F08053136402
:1026E8007B689B69002B00F0AD80364B9B6803F03C
:1026F8000C03082B60D07B689B69022B45D1334BB8
:1027080000221A60FEF702FD386108E0FEF7FEFCC1
:1027180002463B69D31A022B01D9032393E0294BC4
:102728001B6803F00073002BF0D17B68DA697B68C3
:102738001B6A1A437B685B6A9B011A437B689B6A26
:102748005B08013B1B041A437B68DB6A1B061A43C0
:102758007B681B6B1B071B4913434B601B4B0122F8
:102768001A60FEF7D3FC386108E0FEF7CFFC02469A
:102778003B69D31A022B01D9032364E0114B1B6870
:1027880003F00073002BF0D05CE0104B00221A60BD
:10279800FEF7BCFC386108E0FEF7B8FC02463B696E
:1027A800D31A022B01D903234DE0064B1B6803F013
:1027B8000073002BF0D145E07B689B69012B07D1A2
:1027C800012340E0003802400070004060004742AA
:1027D8001F4B5B68FB607B689B69012B30D0FB68F3
:1027E80003F480027B68DB699A4229D1FB6803F015
:1027F8003F027B681B6A9A4222D1FA6847F6C07387
:1028080013407A68526A9201934219D1FB6803F423
:1028180040327B689B6A5B08013B1B049A420FD1DC
:10282800FB6803F070627B68DB6A1B069A4207D17B
:10283800FB6803F0E0427B681B6B1B079A4201D0E0
:10284800012300E0002318461837BD4680BD00BFAD
:102858000038024080B582B000AF78607B68002BFA
:1028680001D1012342E07B6893F84130DBB2002BB1
:1028780006D17B68002283F840207868FEF796F836
:102888007B68242283F841207B681B68DA687B68B0
:102898001B6822F40052DA60786800F02BF87B6835
:1028A8001B681A697B681B6822F490421A617B686E
:1028B8001B685A697B681B6822F02A025A617B6888
:1028C8001B68DA687B681B6842F40052DA607B6830
:1028D80000225A647B68202283F841207B682022EA
:1028E80083F842207B6800225A6300231846083781
:1028F800BD4680BD2DE9B04FC0B000AFC7F8F400A9
:10290800D7F8F4301B681B6923F44050D7F8F4302B
:10291800D968D7F8F4301A6840EA01031361D7F888
:10292800F4309A68D7F8F4301B691A43D7F8F430B2
:102938005B691A43D7F8F430DB691343C7F8F830FA
:10294800D7F8F4301B68DB6823F4164121F00C013A
:10295800D7F8F4301A68D7F8F8300B43D360D7F8B3
:10296800F4301B685B6923F44070D7F8F430996938
:10297800D7F8F4301A6840EA01035361D7F8F43005
:102988001A68954B9A4211D0D7F8F4301A68934BCD
:102998009A420BD0D7F8F4301A68914B9A4205D076
:1029A800D7F8F4301A688F4B9A4204D1FFF72EFA01
:1029B800C7F8FC0003E0FFF715FAC7F8FC00D7F8E2
:1029C800F430DB69B3F5004F40F01081D7F8FC30E4
:1029D8000022C7F8E830C7F8EC20D7E93A45224684
:1029E8002B469118B9655B41FB65D7E9162321464B
:1029F80012EB0108294643EB01094FF000024FF0A2
:102A080000034FEAC90343EA58734FEAC8029046E5
:102A18009946234618EB0303C7F8E0302B4649EBE9
:102A28000303C7F8E430D7F8F4305B680022C7F82E
:102A3800D830C7F8DC20D7E936120B46DB183B65DF
:102A4800134642EB03037B65D7E91423D7E9380122
:102A5800FDF7DEFB02460B46634BA3FB02235B0933
:102A68001C01D7F8FC300022C7F8D030C7F8D420B2
:102A7800D7E9348942464B469118B9645B41FB64F7
:102A8800D7E91223414612EB010A494643EB010BF1
:102A98004FF000024FF000034FEACB0343EA5A73AA
:102AA8004FEACA0292469B4643461AEB0303C7F80D
:102AB800C8304B464BEB0303C7F8CC30D7F8F4309B
:102AC8005B680022C7F8C030C7F8C420D7E93012C5
:102AD8000B46DB183B64134642EB03037B64D7E9E0
:102AE8001023D7E93201FDF793FB02460B46114646
:102AF8003D4BA3FB01235B09642202FB03F3CB1AC2
:102B0800DB0003F13202384BA3FB02235B095B00B5
:102B180003F4F8731C44D7F8FC300022C7F8B83027
:102B2800C7F8BC20D7E92E8942464B469118B963AD
:102B38005B41FB63D7E90E23414651183963494687
:102B48004B417B634FF000024FF00003D7E90CAB19
:102B58005946CB00514643EA51735146CA001046C4
:102B68001946034642469B18C7F8B0304B460A46FA
:102B780042EB0303C7F8B430D7F8F4305B6800229F
:102B8800C7F8A830C7F8AC20D7E92A120B46DB18DB
:102B9800BB62134642EB0303FB62D7E90A23D7E97A
:102BA8002C01FDF735FB02460B460F4BA3FB021326
:102BB8005B09642101FB03F3D31ADB0032330A4AB1
:102BC800A2FB03235B0903F00702D7F8F4301B6864
:102BD80022449A600AE100BF00100140001401403D
:102BE80000180140001C01401F85EB51D7F8FC304C
:102BF8000022C7F8A030C7F8A420D7E928894246A0
:102C08004B46911839625B417B62D7E908234146FC
:102C18005418494643EB01054FF000024FF00003FA
:102C2800EB0043EA5473E20014461D464346E3189A
:102C3800C7F898304B4645EB0303C7F89C30D7F8E4
:102C4800F4305B680022C7F89030C7F894204FF042
:102C580000024FF00003D7E9244529468B0021469E
:102C680043EA917321468A00D7E92601FDF7D0FA95
:102C780002460B46604BA3FB02235B091C01D7F8F5
:102C8800FC300022C7F88830C7F88C20D7E92289A1
:102C980042464B469118B9615B41FB61D7E906236F
:102CA80041465118396149464B417B614FF000025A
:102CB8004FF00003D7E904AB5946CB00514643EA2D
:102CC80051735146CA0010461946034642469B189E
:102CD800C7F880304B460A4642EB0303C7F88430F6
:102CE800D7F8F4305B680022BB67FA674FF0000240
:102CF8004FF00003D7E91E8949468B00414643EA55
:102D0800917341468A00D7E92001FDF781FA02460E
:102D18000B461146384BA3FB01235B09642202FBD7
:102D280003F3CB1A1B013233334AA2FB03235B099B
:102D380003F0F0031C44D7F8FC3000223B677A67A5
:102D4800D7E91C8942464B469118B9605B41FB6044
:102D5800D7E9022341465118396049464B417B6007
:102D68004FF000024FF00003D7E900AB5946CB0003
:102D7800514643EA51735146CA0010461946034664
:102D880042469B18BB664B460A4642EB0303FB666A
:102D9800D7F8F4305B6800223B667A664FF0000291
:102DA8004FF00003D7E9188949468B00414643EAAA
:102DB800917341468A00D7E91A01FDF729FA0246BC
:102DC8000B460D4BA3FB02135B09642101FB03F3C4
:102DD800D31A1B013233084AA2FB03235B0903F011
:102DE8000F02D7F8F4301B6822449A6000BF07F539
:102DF8008077BD46BDE8B08F1F85EB5184B080B5A4
:102E080084B000AF786007F11C0080E80E0097F8E6
:102E18002130012B23D17B689B6B23F480327B68A4
:102E28009A637B68DB6823F4840323F040037A68A1
:102E3800D3607B68DB6823F440127B68DA6097F81C
:102E48002830012B05D17B68DB6843F480127B684E
:102E5800DA60786800F09AFA0346FB731BE07B6837
:102E6800DB6843F040027B68DA60786800F08EFA2D
:102E78000346FB7397F82530002B06D17B689B6BC4
:102E880043F480327B689A6305E07B689B6B23F48C
:102E980080327B689A63BB7F012B0BD17B689B6870
:102EA80043F006027B689A607B689B6843F02002C7
:102EB8007B689A60FB7B18461037BD46BDE88040AA
:102EC80004B0704780B483B000AF78607B689B68BB
:102ED80023F001027B689A60002318460C37BD4630
:102EE8005DF8047B704780B584B000AF78600B460E
:102EF800FB700023FB607B68DB6823F0C0427B68C3
:102F0800DA60FB78012B15D17B68DB6843F000524F
:102F18007B68DA600A20FEF705F9FB680A33FB6074
:102F2800786800F025FA0346012B1ED0FB68C72BF2
:102F3800F0D91AE0FB78002B15D17B68DB6843F0E9
:102F480080427B68DA600A20FEF7ECF8FB680A33F7
:102F5800FB60786800F00CFA0346002B05D0FB688C
:102F6800C72BF0D901E0012305E0FB68C82B01D18C
:102F7800012300E0002318461037BD4680BD00003D
:102F880084B080B586B000AF786007F1240080E88F
:102F98000E000023FB757B68FB6000233B6109E0A2
:102FA8007A683B6940339B00134400225A603B69AE
:102FB80001333B613B690E2BF2D997F82E30002B79
:102FC8001CD1FB6803F500635B68FA6802F50062D0
:102FD80043F0020353607B689B6B23F400127B6809
:102FE8009A637B681B6843F040027B681A607B68C1
:102FF8001B6843F080027B681A6005E07B689B6B66
:1030080043F400127B689A63FB6803F560631A4611
:103018000023136097F82930012B0DD197F827303A
:10302800002B04D10021786800F068F908E001213C
:10303800786800F063F903E00321786800F05EF92E
:103048001021786800F0FAF80346002B01D001231C
:10305800FB75786800F024F90346002B01D00123A2
:10306800FB75FB6803F500631A4600231361FB68D0
:1030780003F500631A4600235361FB6803F50063F8
:103088001A460023D36100233B6143E03B695A01A0
:10309800FB68134403F510631B6803F00043B3F1A6
:1030A800004F18D13B69002B0AD13B695A01FB68D4
:1030B800134403F510631A464FF00063136013E0DE
:1030C8003B695A01FB68134403F510631A464FF035
:1030D8009043136008E03B695A01FB68134403F509
:1030E80010631A46002313603B695A01FB681344B6
:1030F80003F510631A46002313613B695A01FB6804
:10310800134403F510631A464FF67F3393603B6907
:1031180001333B6197F824301A463B699342B5D393
:1031280000233B6143E03B695A01FB68134403F504
:1031380030631B6803F00043B3F1004F18D13B69BB
:10314800002B0AD13B695A01FB68134403F530632D
:103158001A464FF00063136013E03B695A01FB689D
:10316800134403F530631A464FF09043136008E0A8
:103178003B695A01FB68134403F530631A46002380
:1031880013603B695A01FB68134403F530631A4620
:10319800002313613B695A01FB68134403F530634C
:1031A8001A464FF67F3393603B6901333B6197F8CA
:1031B80024301A463B699342B5D3FB6803F5006394
:1031C8001B69FA6802F5006223F4807313617B6857
:1031D80000229A617B686FF080425A6197F8263026
:1031E800002B05D17B689B6943F010027B689A61CC
:1031F8007B689A69104B13437A68936197F82A3071
:10320800002B05D07B689B6943F008027B689A61B4
:1032180097F82E30012B07D17B689B6943F08043D8
:1032280043F004037A689361FB7D18461837BD465E
:10323800BDE8804004B0704700383C8080B485B059
:1032480000AF786039600023FB60FB680133FB60E6
:10325800FB68B3F1706F01D903231BE07B681B691E
:10326800002BF2DA0023FB603B689B0143F020024D
:103278007B681A61FB680133FB60FB68B3F1706F10
:1032880001D9032306E07B681B6903F02003202B88
:10329800F0D0002318461437BD465DF8047B70470C
:1032A80080B485B000AF78600023FB60FB68013311
:1032B800FB60FB68B3F1706F01D9032318E07B68EA
:1032C8001B69002BF2DA0023FB607B6810221A616D
:1032D800FB680133FB60FB68B3F1706F01D903230E
:1032E80006E07B681B6903F01003102BF0D0002365
:1032F80018461437BD465DF8047B704780B485B026
:1033080000AF78600B46FB707B68FB60FB6803F5D9
:1033180000631A68FB78F96801F5006113430B60D4
:10332800002318461437BD465DF8047B704780B407
:1033380085B000AF78607B68FB60FB6803F560636D
:103348001B68FA6802F5606223F003031360FB68E8
:1033580003F500635B68FA6802F5006243F0020354
:103368005360002318461437BD465DF8047B704748
:1033780080B483B000AF78607B685B6903F00103B9
:1033880018460C37BD465DF8047B704780B485B09D
:1033980000AF78600023FB60FB680133FB60FB68CB
:1033A800B3F1706F01D903231BE07B681B69002B05
:1033B800F2DA0023FB607B681B6943F001027B683B
:1033C8001A61FB680133FB60FB68B3F1706F01D9C8
:1033D800032306E07B681B6903F00103012BF0D08F
:1033E800002318461437BD465DF8047B7047024435
:1033F8000346934200D1704703F8011BF9E7000028
:1034080070B50D4D0D4C641BA4100026A64209D1C1
:103418000B4D0C4C00F018F8641BA4100026A642B3
:1034280005D170BD55F8043B98470136EEE755F8CD
:10343800043B98470136F2E78834000888340008CE
:10344800883400088C340008F8B500BFF8BC08BC04
:103458009E467047F8B500BFF8BC08BC9E4670474A
:10346800000000000000000001020304060708092C
:08347800000000000102030442
:08348000C8CDFF7F0100000030
:04348800FD0100083A
:04348C00D90100085A
:103490000024F4003132333435363738392A3023BA
:1034A000400008000001800004001000200000001F
:0834B000100000000100000003
:0400000508000B8163
:00000001FF
